:060000000A128A11122809
:10000800FE00030EF1000408F2000A08F300831250
:1000180003137F08F4000A128A111A280A128A1197
:100028001528F50183010A128A113D288C1E3228F1
:100038001A08F0007008F50031307506031D2628EF
:100048000610861432307506031D2C2806148610F7
:1000580033307506031D3228061486147408FF0011
:1000680073088A0072088400710E8300FE0E7E0EEB
:1000780009000A128A1151200A128A1183160313E1
:1000880006108610831203130610861083160313B6
:100098008710831203138714502883160313181527
:1000A8001930990018128312031398178316031333
:1000B800071787178C160B178B178312031318163D
:0200C80008002E
:02400E00713F00
:00000001FF
