:060000000A128A11F02F24
:100F2E0003349F3425340C349934483441341F34FF
:100F3E00003409347E088A007F088200A1270A1235
:100F4E008A118000840A04087D0603190034FF0A02
:100F5E000319FE0AA52F203084002B30F000040860
:100F6E00F1000A30F2007008840083130008F300C9
:100F7E00F00A7108840073088000F10AF20BBA2F90
:100F8E0083120313AA01831603138601FF30831203
:100F9E00031386002A08203E84008313000886006F
:100FAE000630F2001330F100AD30F000F00BDD2F03
:100FBE00F10BDD2FF20BDD2FE42F0130F000700866
:100FCE0083120313AA070A302A06031DD12FAA0182
:100FDE00D12F83133530FD000730FE009730FF0010
:100FEE002B3084000A128A11A52783010A128A1156
:020FFE00B22F10
:02400E00713F00
:00000001FF
