:060000000A128A11FC2F18
:100E7400F1007108831203178D00831603178C1376
:100E84000C14831203170C08F0007008F2007208A7
:100E94000800F100831603178C184C2F7108831275
:100EA40003178D0070088C00831603178C130C1520
:100EB40000308B1B0130F2008B1355308D00AA30AB
:100EC4008D008C14721C682F8B17692F8B1383165B
:100ED40003170C118C1008000F30831603138600BF
:100EE4008801831203138801F70183120313861CFC
:100EF400962F0330F3007308F00077080A128A1162
:100F04004B270A128A110130F3007308F7070330E4
:100F1400F5008A30F4005530F300F30B8F2FF40BF7
:100F24008F2FF50B8F2F962F83120313061DB52FCA
:100F34000530F3007308F00077080A128A114B2772
:100F44000A128A110130F3007308F7070330F50021
:100F54008A30F4005530F300F30BAE2FF40BAE2FB0
:100F6400F50BAE2FB52F83120313861DD42F073034
:100F7400F3007308F00077080A128A114B270A124B
:100F84008A110130F3007308F7070330F5008A3043
:100F9400F4005530F300F30BCD2FF40BCD2FF50BEC
:100FA400CD2FD42F033077060319F70183120313CF
:100FB400061C772FF601033076020318772F760884
:100FC4000A128A113A270A128A118312031388001B
:100FD4000630F5001330F400AD30F300F30BF02FBE
:100FE400F40BF02FF50BF02FF72F0130F3007308FB
:0C0FF400F607DD2F83010A128A116E2F10
:02400E00713F00
:00000001FF
