:100000000A128A11FC2F00308A000408840A820731
:1000100000344D346F34683461346D346534643485
:10002000203445346C346B3468346F346C34793438
:1000300000340034303431343034323438343534F0
:0E004000323438343934393431340034003439
:100C320000300A128A113A260A128A1101300A1267
:100C42008A113A26080001300A128A113A260A123B
:100C52008A110C300A128A113A26080001300A124F
:100C62008A113A260A128A1108300A128A113A2681
:100C72000800F20083120313861272080A128A1104
:100C820050260A128A11831203130616A630F100A7
:100C9200F10B492E00008312031306120800F00024
:100CA200701C572E8312031306145A2E8312031339
:100CB2000610F01C5E2E86145F2E8610701D632EA9
:100CC2000615642E0611F01D682E86150800861181
:100CD2000800F700F501F6017508770784000A128B
:100CE2008A1103200A128A11003A031908007508B2
:100CF200770784000A128A1103200A128A110A1243
:100D02008A118C260A128A110130F5070318F60A95
:100D12000030F6076D2EF40074080F39F1007108E7
:100D2200F2007408F039F1007108F3008312031322
:100D320086167308F10004300310F10CFF3E031D08
:100D42009D2E71080A128A1150260A128A118312E4
:100D520003130616A630F100F10BAD2E000083122C
:100D620003130612A630F100F10BB52E0000720833
:100D72000A128A1150260A128A11831203130616C6
:100D8200A630F100F10BC32E0000831203130612EA
:100D9200A630F100F10BCB2E00000800F60076031E
:100DA200031DF52E73087F3EF4007408F9007908DC
:100DB200F40004300310F40CFF3E031DDB2E740814
:100DC200F5007508F70079080F39F4007408F80087
:100DD20077080A128A113A260A128A1178080A1228
:100DE2008A113A260A128A1102307606031D080079
:100DF2007308BF3EF4007408F9007908F400043067
:100E02000310F40CFF3E031D012F7408F500750852
:100E1200F70079080F39F4007408F80077080A120D
:100E22008A113A260A128A1178080A128A113A2677
:100E320008008316031386010612861200300A1276
:100E42008A1150260A128A112730F400F530F30075
:100E5200F30B292FF40B292FA630F300F30B2F2FBE
:100E6200000003300A128A113A260A128A11073048
:100E7200F4007D30F300F30B3C2FF40B3C2F0330D6
:100E82000A128A113A260A128A112730F300F30B4A
:100E9200482F4B2F03300A128A113A260A128A115E
:100EA20002300A128A113A260A128A1102300A12F2
:100EB2008A113A260A128A1108300A128A113A262F
:100EC2000A128A1100300A128A113A260A128A116B
:100ED2000C300A128A113A260A128A1100300A12BA
:100EE2008A113A260A128A1106300A128A113A2601
:100EF20008000A128A111A270A128A110A128A1182
:100F020019260A128A11F301F30A01300A128A1110
:100F1200CF260A128A1101300A128A116A260A128F
:100F22008A11F301F30A02300A128A11CF260A1239
:100F32008A1112300A128A116A260A128A1183123F
:100F42000313A001A1012108803AFF0080307F0233
:100F5200031DAD2F043020020318D32F0230FC00F2
:100F62008630FB009930FA00FA0BB52FFB0BB52F38
:100F7200FC0BB52F0A128A1124260A128A1101309B
:100F820083120313A0070318A10A0030A107210846
:100F9200803AFF0080307F02031DD12F04302002EF
:100FA200031CAF2F83120313A201A3012308803A6B
:100FB200FF0080307F02031DE02F0430220203185D
:100FC200A02F0230FC008630FB009930FA00FA0BA9
:100FD200E82FFB0BE82FFC0BE82F0A128A112F26B1
:100FE2000A128A11013083120313A2070318A30AFB
:0E0FF2000030A307D72F83010A128A117A2F2D
:02400E00713F00
:00000001FF
