:100000000A128A11F72F00308A000408840A820736
:10001000003445346E3474346534723420344B34D7
:10002000653479340034573465346C3463346F3458
:080030006D3465340034003426
:100918000134831203138801F0308316031388000F
:10092800080000300A128A11AB240A128A11073013
:100938000A128A11AB24080000300A128A11AB246B
:100948000A128A1101300A128A11AB240800F20037
:1009580083120313861272080A128A11C1240A121A
:100968008A11831203130616A630F100F10BBA2C74
:1009780000008312031306120800F000701CC82C34
:10098800831203130614CB2C831203130610F01CD6
:10099800CF2C8614D02C8610701DD42C0615D52C7F
:1009A8000611F01DD92C8615080086110800F700DD
:1009B800F501F6017508770784000A128A110320E9
:1009C8000A128A11003A031908007508770784008B
:1009D8000A128A1103200A128A110A128A11FD24A6
:1009E8000A128A110130F5070318F60A0030F607D3
:1009F800DE2CF40074080F39F1007108F200740855
:100A0800F039F1007108F300831203138616730896
:100A1800F10004300310F10CFF3E031D0E2D710888
:100A28000A128A11C1240A128A11831203130616A4
:100A3800A630F100F10B1E2D0000831203130612DD
:100A4800A630F100F10B262D000072080A128A1157
:100A5800C1240A128A11831203130616A630F10064
:100A6800F10B342D0000831203130612A630F10097
:100A7800F10B3C2D00000800F6007603031D662DDF
:100A880073087F3EF4007408F9007908F400043014
:100A98000310F40CFF3E031D4C2D7408F500750877
:100AA800F70079080F39F4007408F80077080A127B
:100AB8008A11AB240A128A1178080A128A11AB2407
:100AC8000A128A1102307606031D08007308BF3E19
:100AD800F4007408F9007908F40004300310F40CE9
:100AE800FF3E031D722D7408F5007508F70079089C
:100AF8000F39F4007408F80077080A128A11AB2439
:100B08000A128A1178080A128A11AB24080083167F
:100B1800031386010612861200300A128A11C124B4
:100B28000A128A112730F400F530F300F30B9A2DDE
:100B3800F40B9A2DA630F300F30BA02D0000033020
:100B48000A128A11AB240A128A110730F4007D3088
:100B5800F300F30BAD2DF40BAD2D03300A128A11FF
:100B6800AB240A128A112730F300F30BB92DBC2DE0
:100B780003300A128A11AB240A128A1102300A12AF
:100B88008A11AB240A128A1102300A128A11AB2484
:100B98000A128A1108300A128A11AB240A128A1121
:100BA80000300A128A11AB240A128A110C300A1278
:100BB8008A11AB240A128A1100300A128A11AB2456
:100BC8000A128A1106300A128A11AB240800013071
:100BD8008312031388000818081E032E8230F100C0
:100BE800DD30F000F00BF62DF10BF62DFB2D831206
:100BF8000313081AFB2D3130F0007008FD000818A7
:100C0800881E0A2E3230F0007008FD000818081FF0
:100C1800112E3330F0007008FD000818881F182EB8
:100C28004130F0007008FD00023088008818081E66
:100C3800212E3430F0007008FD008818881E282EF8
:100C48003530F0007008FD008818081F2F2E363048
:100C5800F0007008FD008818881F362E4230F0001A
:100C68007008FD00043088000819081E3F2E373030
:100C7800F0007008FD000819881E462E3830F00074
:100C88007008FD000819081F4D2E3930F000700853
:100C9800FD000819881F542E4330F0007008FD002D
:100CA800083088008819081E5D2E2A30F000700868
:100CB800FD008819881E642E3030F0007008FD0091
:100CC8008819081F6B2E2330F0007008FD00881962
:100CD800881F722E4430F0007008FD007D0808005F
:100CE8000A128A11A0240A128A110A128A118B2563
:100CF8000A128A110A128A118D240A128A11F30122
:100D0800F30A01300A128A1140250A128A110B309F
:100D18000A128A11DB240A128A110330FC008A3075
:100D2800FB005530FA00FA0B972EFB0B972EFC0BA5
:100D3800972E9E2E0A128A11A0240A128A11F301F4
:100D4800F30A01300A128A1140250A128A11831205
:100D5800031320080A128A11DB240A128A110A12C4
:100D68008A1195240A128A11F301F30A02300A1231
:100D78008A1140250A128A110A128A11EB250A12D1
:100D88008A11FA007A08FD00C42F3130FA007A0877
:100D9800FD007D080A128A11FD240A128A11F62F15
:100DA8003230FA007A08FD000A128A1195240A12D4
:100DB8008A117D080A128A11FD240A128A11F62F57
:100DC8003330FA007A08FD000A128A1195240A12B3
:100DD8008A117D080A128A11FD240A128A11F62F37
:100DE8003430FA007A08FD000A128A1195240A1292
:100DF8008A117D080A128A11FD240A128A11F62F17
:100E08003530FA007A08FD000A128A1195240A1270
:100E18008A117D080A128A11FD240A128A11F62FF6
:100E28003630FA007A08FD000A128A1195240A124F
:100E38008A117D080A128A11FD240A128A11F62FD6
:100E48003730FA007A08FD000A128A1195240A122E
:100E58008A117D080A128A11FD240A128A11F62FB6
:100E68003830FA007A08FD000A128A1195240A120D
:100E78008A117D080A128A11FD240A128A11F62F96
:100E88003930FA007A08FD000A128A1195240A12EC
:100E98008A117D080A128A11FD240A128A11F62F76
:100EA8003030FA007A08FD000A128A1195240A12D5
:100EB8008A117D080A128A11FD240A128A11F62F56
:100EC8004130FA007A08FD000A128A1195240A12A4
:100ED8008A117D080A128A11FD240A128A11F62F36
:100EE8004230FA007A08FD000A128A1195240A1283
:100EF8008A117D080A128A11FD240A128A11F62F16
:100F08004330FA007A08FD000A128A1195240A1261
:100F18008A117D080A128A11FD240A128A11F62FF5
:100F28004430FA007A08FD000A128A1195240A1240
:100F38008A117D080A128A11FD240A128A11F62FD5
:100F48002A30FA007A08FD000A128A1195240A123A
:100F58008A117D080A128A11FD240A128A11F62FB5
:100F68002330FA007A08FD000A128A1195240A1221
:100F78008A117D080A128A11FD240A128A11F62F95
:100F88007D08233A0319B42F093A0319A42F1A3AF2
:100F98000319542F013A0319C92E033A0319D42E01
:100FA800013A0319E42E073A0319F42E013A0319FA
:100FB800042F033A0319142F013A0319242F0F3A67
:100FC8000319342F013A0319442F783A0319642F6F
:100FD800033A0319742F013A0319842F073A0319A6
:100FE800942FF62FF62F0A128A118C24A000FD01E7
:080FF80083010A128A11742E14
:02400E00713F00
:00000001FF
