:060000000A128A11122809
:10000800FE00030EF0000408F1000A08F200831253
:1000180003137F08F3000A128A1139280A128A1179
:10002800152883010A128A111928831603138714C5
:100038000715860188018312031386011714971088
:10004800171597118E018F019015901410129012A8
:100058001011101495019601831603130C150B1734
:100068008B1783120E08880035280C1D3E281508AA
:1000780086000C117308FF0072088A00710884005A
:0A008800700E8300FE0E7E0E0900CC
:02400E00713F00
:00000001FF
