:060000000A128A11FC2F18
:100EC00083160313071183120313071197151715C0
:100ED0007C308316031392008312031312149210B2
:100EE0001215080004307602003003197502031849
:100EF0000800751C7F2F831203131716822F83128D
:100F00000313171297127608F8007508F7000310FC
:100F1000F80CF70C0310F80CF70C77089500080094
:100F2000831603139F111F119F101F1083120313A9
:100F30001F179F13831603131F13831203139F128C
:100F40001F129F111F14831603139F17831203137D
:100F50000C13831603130C170B178B1708000A12B8
:100F60008A1160270A128A110A128A1190270A121E
:100F70008A1100300A128A11D0270A128A117108C8
:100F8000F6007008F5000A128A1172270A128A11F7
:100F9000C730F900CB2FF90BCA2FCE2FCF2FB92F87
:100FA000F40008307402031CD82FF001F10108008E
:100FB000C530F2007208831203139F057408F20013
:100FC00002300310F20DFF3E031DE12F0310720DDE
:100FD000F30073089F040930F200F20BED2FF02F9D
:100FE000831203131F151F19F32F1E08F100831618
:100FF00003131E08F000080083010A128A11AF2FA4
:02400E00713F00
:00000001FF
