:060000000A128A11FC2F18
:100E9C000430710200300319700203180800701C32
:100EAC005B2F8312031317165E2F83120313171273
:100EBC0097127108F3007008F2000310F30CF20C97
:100ECC000310F30CF20C7208950008001F30831607
:100EDC0003138600081083120313081083160313E0
:100EEC008810831203138814971517158316031390
:100EFC0007117C30920083120313121492101215F6
:100F0C0083120313061C9B2F0130880602308806BF
:100F1C000330F6008A30F5005530F400F40B942FB2
:100F2C00F50B942FF60B942F9B2F83120313861C17
:100F3C00B02F0030F000F1000A128A114E270A126D
:100F4C008A118230F500DD30F400F40BAB2FF50B79
:100F5C00AB2FB02F83120313061DC62FFA30F000EF
:100F6C000030F1000A128A114E270A128A118230BF
:100F7C00F500DD30F400F40BC12FF50BC12FC62F9B
:100F8C0083120313861DDC2F7730F0000130F10043
:100F9C000A128A114E270A128A118230F500DD30AE
:100FAC00F400F40BD72FF50BD72FDC2F8312031380
:100FBC00061EF22FF430F0000130F1000A128A11F3
:100FCC004E270A128A118230F500DD30F400F40B42
:100FDC00ED2FF50BED2FF22F0D30F500FB30F4005B
:100FEC00F40BF62FF50BF62FFB2F862F83010A122D
:040FFC008A116C2FBB
:02400E00713F00
:00000001FF
